{
  "contractName": "Ownable",
  "abi": [
    {
      "inputs": [],
      "payable": false,
      "stateMutability": "nonpayable",
      "type": "constructor"
    },
    {
      "anonymous": false,
      "inputs": [
        {
          "indexed": false,
          "internalType": "address",
          "name": "newOwner",
          "type": "address"
        }
      ],
      "name": "OwnershipTransferred",
      "type": "event"
    },
    {
      "constant": true,
      "inputs": [],
      "name": "getOwner",
      "outputs": [
        {
          "internalType": "address",
          "name": "_owner",
          "type": "address"
        }
      ],
      "payable": false,
      "stateMutability": "view",
      "type": "function"
    },
    {
      "constant": false,
      "inputs": [
        {
          "internalType": "address",
          "name": "newOwner",
          "type": "address"
        }
      ],
      "name": "setOwner",
      "outputs": [
        {
          "internalType": "bool",
          "name": "success",
          "type": "bool"
        }
      ],
      "payable": false,
      "stateMutability": "nonpayable",
      "type": "function"
    }
  ],
  "bytecode": "0x608060405234801561001057600080fd5b50336000806101000a81548173ffffffffffffffffffffffffffffffffffffffff021916908373ffffffffffffffffffffffffffffffffffffffff160217905550610352806100606000396000f3fe608060405234801561001057600080fd5b50600436106100365760003560e01c806313af40351461003b578063893d20e814610097575b600080fd5b61007d6004803603602081101561005157600080fd5b81019080803573ffffffffffffffffffffffffffffffffffffffff1690602001909291905050506100e1565b604051808215151515815260200191505060405180910390f35b61009f6102f4565b604051808273ffffffffffffffffffffffffffffffffffffffff1673ffffffffffffffffffffffffffffffffffffffff16815260200191505060405180910390f35b60008060009054906101000a900473ffffffffffffffffffffffffffffffffffffffff1673ffffffffffffffffffffffffffffffffffffffff163373ffffffffffffffffffffffffffffffffffffffff16146101a5576040517f08c379a000000000000000000000000000000000000000000000000000000000815260040180806020018281038252601f8152602001807f4572726f723a206d73672e73656e646572206d757374206265206f776e65720081525060200191505060405180910390fd5b600073ffffffffffffffffffffffffffffffffffffffff168273ffffffffffffffffffffffffffffffffffffffff161415610248576040517f08c379a000000000000000000000000000000000000000000000000000000000815260040180806020018281038252601a8152602001807f4572726f723a20416464726573732063616e6e6f74206265203000000000000081525060200191505060405180910390fd5b7f04dba622d284ed0014ee4b9a6a68386be1a4c08a4913ae272de89199cc68616382604051808273ffffffffffffffffffffffffffffffffffffffff1673ffffffffffffffffffffffffffffffffffffffff16815260200191505060405180910390a1816000806101000a81548173ffffffffffffffffffffffffffffffffffffffff021916908373ffffffffffffffffffffffffffffffffffffffff16021790555060019050919050565b60008060009054906101000a900473ffffffffffffffffffffffffffffffffffffffff1690509056fea265627a7a723158202b7cf7767c1676e911cb11ef184731efb6e62e4cf4fd335221a79dce5133c0ad64736f6c63430005100032",
  "source": "pragma solidity ^0.5.0;\r\n\r\ncontract Ownable {\r\n\r\n    address private owner;\r\n\r\n    event OwnershipTransferred(address newOwner);\r\n    \r\n    /*\r\n    This constructor function sets the initial deployer\r\n    to the owner, constructors executes once on deployment\r\n    */\r\n    constructor() public\r\n    {\r\n        owner = msg.sender;\r\n    }\r\n\r\n    /*\r\n    Checks to see if the msg.sender is the owner,\r\n    this mofidier is used on functions like kill(),\r\n    withdrawWhenKilled(), Stop() and Resume().\r\n    Authoritative functions should be limited to the owner,\r\n    and no publicly.\r\n    */\r\n    modifier onlyOwner()\r\n    {\r\n        require(msg.sender == owner, \"Error: msg.sender must be owner\");\r\n        _;\r\n    }\r\n\r\n    /*\r\n    This read only function simply retrieves the owners address.\r\n    */\r\n    function getOwner()\r\n    public\r\n    view\r\n    returns (address _owner) {\r\n        return owner;\r\n    }\r\n\r\n    /*\r\n    Allows for the current owner to set a new owner.\r\n    */\r\n    function\r\n    setOwner(address newOwner)\r\n    public\r\n    onlyOwner\r\n    returns(bool success)\r\n    {\r\n        require(newOwner != address(0x0), \"Error: Address cannot be 0\");\r\n        emit OwnershipTransferred(newOwner);\r\n        owner = newOwner;\r\n        return true;\r\n    }\r\n\r\n}",
  "sourcePath": "C:\\Web3.0\\Velozity\\loan\\Loan-DApp\\contracts\\Ownable.sol",
  "compiler": {
    "name": "solc",
    "version": "0.5.16+commit.9c3226ce.Emscripten.clang"
  },
  "schemaVersion": "3.4.4",
  "updatedAt": "2023-11-27T09:03:53.304Z",
  "devdoc": {
    "methods": {}
  },
  "userdoc": {
    "methods": {}
  }
}